:100000000C9486000C94AE000C94AE000C94AE00E0
:100010000C94AE000C94AE000C94AE000C94AE00A8
:100020000C94AE000C94AE000C94AE000C94AE0098
:100030000C94AE000C94AE000C94AE000C94AE0088
:100040000C94EE080C94AE000C94BC080C9496082A
:100050000C94AE000C94AE000C94AE000C94AE0068
:100060000C94AE000C94AE00CDCCCC3D0AD7233C12
:1000700017B7D13877CC2B329595E6241FB14F0AAC
:100080000000803FCDCCCC3D6F12833A95BFD63374
:100090007D1D9026B3CE010C000020410000C84217
:1000A00000401C4620BCBE4CCA1B0E5AAEC59D74F7
:1000B00000000000240027002A00000000002500A6
:1000C00028002B00000000080002010000030407C4
:1000D00000000000000000000000000023002600D7
:1000E00029000404040404040404020202020202BB
:1000F00003030303030301020408102040800102EC
:1001000004081020010204081020380911241FBE21
:10011000CFEFD8E0DEBFCDBF11E0A0E0B1E0EAEA6A
:10012000FCE102C005900D92A637B107D9F722E095
:10013000A6E7B1E001C01D92A533B207E1F710E0D8
:10014000C6E8D0E004C02197FE010E941F0DC5380B
:10015000D107C9F70E9485090C94530E0C94000036
:10016000CF92DF92EF92FF92CF93809124028C3056
:1001700009F44FC038F48B30F1F060E070E080ECAF
:100180009FE741C085518230C0F7C09120026C2F9B
:1001900070E0762F662766277F7780912102682B93
:1001A00090E080E00E94C50B2DEC3CEC4CEC5DE354
:1001B0000E947C0C4AC06091200270E090E080E0D8
:1001C0000E94C50B6B017C01C0912102C7FF0AC0D0
:1001D000AC019B0160E070E080E89FEB0E941D0B8A
:1001E0006B017C01CF706C2F70E090E080E00E948A
:1001F000C70B2DEC3CEC4CEC5DE30E947C0CA701A2
:1002000096010E941E0BCF91FF90EF90DF90CF9050
:100210000895C09120026C2F70E090E080E00E9471
:10022000C50B6B017C01609121026F7070E090E062
:1002300080E00E94C70B2DEC3CEC4CEC5DE30E948F
:100240007C0CA70196010E941E0BC7FFDCCF9058C3
:10025000DACFCF92DF92EF92FF92CF93DF93B091FC
:100260002502A0E08111AB2F8091260290E0880F3B
:10027000991FAC0148525F4FC0902B02D0902C02C6
:10028000E0902D02F0902E0230E020E0FA01C591BE
:10029000D491E881B90190E080E0EB23EA130AC031
:1002A0002F5F3F4F6C157D058E059F0578F36FEF2F
:1002B0007FEFCB01DF91CF91FF90EF90DF90CF9058
:1002C00008950895AF92BF92CF92DF92EF92FF927E
:1002D0000F931F93CF93DF936C017B018B01040F6E
:1002E000151FEB015E01AE18BF08C017D10759F00A
:1002F0006991D601ED91FC910190F081E02DC6014C
:100300000995892B79F7C501DF91CF911F910F9145
:10031000FF90EF90DF90CF90BF90AF900895FC01D9
:10032000538D448D252F30E0842F90E0821B930B5A
:10033000541710F0CF96089501970895FC01918D00
:10034000828D981761F0A28DAE0FBF2FB11D5D9603
:100350008C91928D9F5F9F73928F90E008958FEFA5
:100360009FEF0895FC01918D828D981731F0828D59
:10037000E80FF11D858D90E008958FEF9FEF0895B0
:10038000FC01918D228D892F90E0805C9F4F821B14
:1003900091098F739927089581E891E00E94C00127
:1003A00021E0892B09F420E0822F089580E090E07D
:1003B000892B29F00E94CC0181110C940000089532
:1003C000FC01A48DA80FB92FB11DA35ABF4F2C91CA
:1003D000848D90E001968F739927848FA689B789C1
:1003E0002C93A089B1898C91837080648C93938DB8
:1003F000848D981306C00288F389E02D80818F7D5B
:1004000080830895EF92FF920F931F93CF93DF9312
:10041000EC0181E0888F9B8D8C8D98131AC0E88940
:10042000F989808185FF15C09FB7F894EE89FF890F
:100430006083E889F98980818370806480839FBFAD
:1004400081E090E0DF91CF911F910F91FF90EF90AD
:100450000895F62E0B8D10E00F5F1F4F0F731127BD
:10046000E02E8C8D8E110CC00FB607FCFACFE889F8
:10047000F989808185FFF5CFCE010E94E001F1CF9F
:10048000EB8DEC0FFD2FF11DE35AFF4FF0829FB76C
:10049000F8940B8FEA89FB8980818062CFCFCF935C
:1004A000DF93EC01888D8823B9F0AA89BB89E8899C
:1004B000F9898C9185FD03C0808186FD0DC00FB642
:1004C00007FCF7CF8C9185FFF2CF808185FFEDCFC0
:1004D000CE010E94E001E9CFDF91CF91089590E035
:1004E000FC01EC53FF4F2491FC01EA50FF4F349183
:1004F000FC01EE51FF4FE491EE23C9F0222339F0C5
:10050000233001F1A8F4213019F1223029F1F0E073
:10051000EE0FFF1FE654FF4FA591B4918FB7F894EB
:10052000EC91611126C030953E233C938FBF089516
:100530002730A9F02830C9F0243049F78091800095
:100540008F7D03C0809180008F7780938000DFCF04
:1005500084B58F7784BDDBCF84B58F7DFBCF809151
:10056000B0008F778093B000D2CF8091B0008F7DA4
:10057000F9CF3E2BDACFCF93DF9390E0FC01EA5026
:10058000FF4F24918E519F4FFC0184918823D1F01D
:1005900090E0880F991FFC01E055FF4FA591B491A1
:1005A000FC01E654FF4FC591D491623071F49FB7BE
:1005B000F8943C91822F809583238C93E8812E2B95
:1005C00028839FBFDF91CF9108958FB7F894EC9166
:1005D0002E2B2C938FBFF6CF8E50806480937C009F
:1005E00080917A00806480937A0080917A0086FD01
:1005F000FCCF809178009091790008953FB7F894EE
:100600008091770190917801A0917901B0917A0160
:1006100026B5A89B05C02F3F19F00196A11DB11D5D
:100620003FBFBA2FA92F982F8827BC01CD01620F99
:10063000711D811D911D42E0660F771F881F991F54
:100640004A95D1F708958F929F92AF92BF92CF9221
:10065000DF92EF92FF924B015C010E94FE026B0160
:100660007C010E94FE026C197D098E099F09683E7B
:10067000734081059105A8F321E0821A9108A10831
:10068000B10888EEC80E83E0D81EE11CF11C81146D
:100690009104A104B10429F7FF90EF90DF90CF906F
:1006A000BF90AF909F908F900895CF92DF92EF927E
:1006B000FF920F931F93CF93DF93CDB7DEB7C05454
:1006C000D1400FB6F894DEBF0FBECDBF2FB7F89460
:1006D00080917D0190917E01A0917F01B091800178
:1006E0002FBF4091270250912802609129027091FA
:1006F0002A028C019D01041B150B260B370BB90137
:10070000A801403D57406105710590F480912F028A
:10071000C05CDE4F0FB6F894DEBF0FBECDBFDF91D9
:10072000CF911F910F91FF90EF90DF90CF900895A0
:100730008093270290932802A0932902B0932A0263
:1007400010922202109221021092200210921F0297
:1007500010921E0262E0809123020E94BB0261E0BF
:1007600070E080E090E00E94230361E0809123022A
:100770000E94BB0260E0809123020E946F02809180
:1007800024028551823020F58BE291E10197F1F747
:1007900062E0809123020E94BB028091300290E0CF
:1007A0008230910538F0880F991F880F991F05979F
:1007B0000197F1F7F89480E00E9429016F3F7F4F85
:1007C0008F4F9F4F61F410922F02789480E0A0CF5A
:1007D00064E170E080E090E00E942303D9CF81E0E3
:1007E0000E9429016F3F7F4F8F4F9F4F61F38E0112
:1007F0000F5F1F4F6E018FEBC81A8EEFD80A78017A
:1008000080E00E942901F7016083718382839383D2
:1008100081E00E942901F7016483758386839783B1
:10082000F8E0EF0EF11CEC14FD0451F7789430E081
:1008300020E0F801C080D180E280F38044815581BE
:1008400066817781FFEFCF16DF06EF06FF0631F0F6
:100850004F3F8FEF58076807780719F410922F025F
:10086000B5CFF90183E0F595E7958A95E1F7E25E6A
:10087000FD4F8081880FC416D506E606F70610F1F5
:1008800080832F5F3F4F085F1F4F2832310589F665
:100890004091220220911E0280911F02280F3327CF
:1008A000331F80912002280F311D80912102820F79
:1008B000932F911D99274817190681F681E080939F
:1008C0002F0226CF8160DCCFCF92DF92EF92FF9292
:1008D0000E945503882349F0809124028B3028F030
:1008E0008D3040F08551823030F160E070E080EC76
:1008F0009FE71CC060911F0270E090E080E00E94C2
:10090000C70B2DEC3CEC4CEC5DE30E947C0C6B01C6
:100910007C0160911E0270E090E080E00E94C70BB5
:100920009B01AC01C701B6010E941E0BFF90EF9026
:10093000DF90CF90089560911E0270911F0276277C
:100940006727762790E080E00E94C50B2DEC3CECF9
:100950004CEC5DE30E947C0CE9CF9C01FB013097DD
:1009600061F0948190789A609483C901330FAA0B47
:10097000BB0B80839183A283B3830895CF93DF93CE
:10098000EC0188819981DC01ED91FC910190F0816D
:10099000E02D09952A813B81820F931F9B838A83D7
:1009A000DF91CF910895CF93DF93EC0188819981F6
:1009B000DC01ED91FC910280F381E02D09952A8103
:1009C0003B81820F931F9B838A83DF91CF91089590
:1009D0008F929F92AF92BF92CF92DF92EF92FF924F
:1009E0000F931F93CF93DF93CDB7DEB766970FB604
:1009F000F894DEBF0FBECDBF6C018E01095E1F4FA4
:100A000078018AE0882E912CA12CB12CCB01BA015F
:100A1000A50194010E94FD0C942F852F605DF801C3
:100A200062938F01A901692F782F41155105610546
:100A3000710561F7A7014E1B5F0BBF01C6010E9444
:100A4000D30466960FB6F894DEBF0FBECDBFDF911C
:100A5000CF911F910F91FF90EF90DF90CF90BF90BB
:100A6000AF909F908F900895FC012581222339F04B
:100A7000F8E02F0290011124820F931F089590E057
:100A800080E00895FB0101900020E9F73197AF0164
:100A9000461B570B0C94D3041F93CF93DF93E8E1CD
:100AA000F1E01281112379F0329621816213F9CF9E
:100AB000EC016CE50E94BE04612FCE01DF91CF9165
:100AC0001F910C94BE046111F9CF69E271E0DF91CE
:100AD000CF911F910C9442052F923F924F925F92BB
:100AE0006F927F928F929F92AF92BF92CF92DF923E
:100AF000EF92FF920F931F93CF93DF93CDB7DEB7A3
:100B00006C970FB6F894DEBF0FBECDBF8C011B01F2
:100B1000DC0114968C9114978F77863009F492C279
:100B200068F58230A0F11296ED90FC901397CC906E
:100B30001196DC90843008F056C2A701B601C101BD
:100B40000E94D304F101828193816C960FB6F894D0
:100B5000DEBF0FBECDBFDF91CF911F910F91FF90F0
:100B6000EF90DF90CF90BF90AF909F908F907F904D
:100B70006F905F904F903F902F9008958C3069F167
:100B800060F4883009F459C28A3009F43FC260E346
:100B900071E0C1010E944205E5C1803209F4ECC157
:100BA0008034A9F76BE5C1010E94BE04F801008101
:100BB00011810115110509F4DAC1B101C8010E94C2
:100BC0006C05C8010E9434058C01892B09F4CFC142
:100BD0006CE2C1010E94BE04ECCFF801C080D1805C
:100BE000E280F380A7019601C701B6010E948A0B3B
:100BF0008111CDCF20E030E0A901C701B6010E94EC
:100C00008A0B882379F0A7019601C701B6010E94DB
:100C10001E0B9B01AC01C701B6010E948A0B882301
:100C200009F4B5CF20E030E0A901C701B6010E9468
:100C30008A0B87FF08C06DE2C1010E94BE04F7FA6B
:100C4000F094F7F8F09420E836E948E15BE4C70156
:100C5000B6010E94770C87FD81C074E1A72EB12CEC
:100C600000E210E0188E1F8AF501E856FF4F25912B
:100C7000359145915491C701B6010E94770C87FDCB
:100C800013C0F501E859FF4F2591359145915491D5
:100C9000C701B6010E947C0C6B017C012F89388D45
:100CA000200F311F388F2F8B1595079534E0A31A2D
:100CB000B1088CEFA8168FEFB806B1F655245A94F8
:100CC00020E030E0A901C701B6010E94770C181698
:100CD0000CF04BC02CEA35EC47E257E3C701B601F4
:100CE0000E948A0B18160CF440C0A52DB4E0AB028C
:100CF000C0011124B12CA12CFC01E058FF4F3F0191
:100D00009C0128563F4F49013FEF531671F1F30103
:100D1000EA0DFB1D2591359145915491C701B6010E
:100D20000E948A0B87FF13C0F401EA0DFB1D259179
:100D3000359145915491C701B6010E947C0C6B011D
:100D40007C018F89988D801B910B988F8F8B1595C7
:100D500007955A9494E0A91AB108D6CF00E210E0A2
:100D600055E0552E188E1F8AABCFC701B6010E94E1
:100D7000960B4B015C012B013C0106E080E492E400
:100D8000AFE0B0E0898F9A8FAB8FBC8F102F0150EE
:100D90009AE04916510461047104C8F0698D7A8D96
:100DA0008B8D9C8D2AE030E040E050E00E94FD0CED
:100DB000298F3A8F4B8F5C8FC301B2012AE030E05C
:100DC00040E050E00E94FD0C29013A01DFCFC5014F
:100DD000B4010E94C50B9B01AC01C701B6010E9482
:100DE0001D0B6B017C01698D7A8D8B8D9C8D0E9412
:100DF000C50B9B01AC01C701B6010E947C0C2B0105
:100E00003C010E94960B6B017C010E94C50B9B016B
:100E1000AC01C301B2010E941D0B9B01AC010E94F9
:100E20001E0B0E94960BC60ED71EE81EF91E898D5A
:100E30009A8DAB8DBC8DC816D906EA06FB06D8F094
:100E40009FEF891A990AA90AB90AAF89B88DAB2B05
:100E500039F1BAE08B169104A104B10408F1EF89CD
:100E6000F88D3196F88FEF8BC12CD12C7601812C27
:100E7000912C540183942AE0422E512C612C712C28
:100E8000C701B601A30192010E94FD0C672B682BDC
:100E9000692B51F4111644F469017A011150F0CF15
:100EA000C12CD12C7601E7CFB501A401C1010E946C
:100EB000E804112371F14E01F1E18F0E911C012F15
:100EC00054019AE0492E512C612C712C015068F08C
:100ED000C701B601A30192010E94FD0C605DD4011F
:100EE0006E934D0169017A01F1CF812F90E0BC0131
:100EF00060957095F501E81BF90B31978EE28083C0
:100F000044275527461B570B6A0D7B1DC1010E94C4
:100F1000D304EF89F88DEF2B29F165E6C1010E941A
:100F2000BE040F89188D17FF07C06DE2C1010E9432
:100F3000BE04119501951109FE0177969F018AE083
:100F4000E82EF12CC801B7010E94E90C805D829364
:100F50008B01672BB9F7A9014E1B5F0BBF01C101C4
:100F60000E94D304D10112968D919C91EECD6DE536
:100F7000C1010E94BE04F6CF6BE7C1010E94BE040E
:100F8000F801008111810115110559F1D80116965A
:100F9000CC9016971796DC9062E2C1010E94BE04C5
:100FA0007601F70161917F01662321F0C1010E9462
:100FB0004C05F7CF62E2C1010E94BE046AE3C101A1
:100FC0000E94BE04B101C8010E946C05C8010E94C4
:100FD00034058C01892B29F06CE2C1010E94BE040A
:100FE000D2CF6DE7C5CF62E2C1010E94BE04860187
:100FF000E00EF11EE016F10639F0F80161918F0163
:10100000C1010E944C05F6CF62E2B2CFCD90DD90D7
:10101000ED90FC90B701A601F7FE0BC06DE2C10197
:101020000E94BE0444275527BA014C195D096E0978
:101030007F09C1010E94E80485CD4D915D916D91BC
:101040007C91F7CF8C9165E371E0811102C06AE376
:1010500071E0C1010E94420575CDCF92DF92EF92FF
:10106000FF920F931F93CF93DF93FC018481982FFE
:101070009F7739F480788062848311821082138292
:101080001282848185FD0BC080E090E0DF91CF91DA
:101090001F910F91FF90EF90DF90CF900895611511
:1010A000710591F3EA017B016F0100811181011546
:1010B000110589F1D80116966D917C91C7010E94A6
:1010C0004A0E892B31F1C8010E9434058C01EFCF03
:1010D0003897FD83EC833097B9F2E601AA81BB8192
:1010E000109791F0CF018A1B9B0B23E09595879574
:1010F0002A95E1F715968C93FB83EA831582148277
:10110000F782E682CF01C2CFF983E883FB83EA83CB
:10111000F5CFC801BBCFEC81FD818A819B81089608
:10112000E817F907A8F681E08887AECF1F920F92E3
:101130000FB60F9211242F933F934F935F936F93AA
:101140007F938F939F93AF93BF93EF93FF9381E828
:1011500091E00E94E001FF91EF91BF91AF919F91CB
:101160008F917F916F915F914F913F912F910F9050
:101170000FBE0F901F9018951F920F920FB60F92EF
:1011800011242F938F939F93EF93FF93E0919101FD
:10119000F09192018081E0919701F091980182FD98
:1011A0001BC0908180919A018F5F8F7320919B016A
:1011B000821741F0E0919A01F0E0EF57FE4F958FD2
:1011C00080939A01FF91EF919F918F912F910F90B2
:1011D0000FBE0F901F9018958081F4CF1F920F9231
:1011E0000FB60F9211242F933F938F939F93AF933A
:1011F000BF9380917D0190917E01A0917F01B0917C
:1012000080013091760123E0230F2D3758F50196A8
:10121000A11DB11D2093760180937D0190937E01E5
:10122000A0937F01B0938001809177019091780124
:10123000A0917901B0917A010196A11DB11D809311
:10124000770190937801A0937901B0937A01BF91CF
:10125000AF919F918F913F912F910F900FBE0F9063
:101260001F90189526E8230F0296A11DB11DD2CF1D
:10127000E1E8F1E01382128288EE93E0A0E0B0E0B2
:1012800084839583A683B7838AE091E091838083EA
:1012900085EC90E09587848784EC90E0978786873B
:1012A00080EC90E0918B808B81EC90E0938B828B33
:1012B00082EC90E0958B848B86EC90E0978B868B0C
:1012C000118E128E138E148EAEE1B2E082E015966E
:1012D0008C9315978BE016968C931697E8EFF0E0B9
:1012E000E4911796EC931797E4EEF0E0E4911896EA
:1012F000EC93189740E85EE360E070E01D964D9334
:101300005D936D937C9350970895CF93DF93CDB702
:10131000DEB763970FB6F894DEBF0FBECDBF7894EB
:1013200084B5826084BD84B5816084BD85B58260EA
:1013300085BD85B5816085BD80916E00816080939B
:101340006E00109281008091810082608093810004
:101350008091810081608093810080918000816014
:10136000809380008091B10084608093B10080916F
:10137000B00081608093B00080917A008460809397
:101380007A0080917A00826080937A0080917A005E
:10139000816080937A0080917A00806880937A00DF
:1013A0001092C10061E08CE00E94BB0260E08CE022
:1013B0000E946F02E0919101F091920182E080839E
:1013C000E0918D01F0918E011082E0918F01F091FA
:1013D00090018FEC808310929901E0919501F0913A
:1013E000960186E08083E0919301F09194018081E1
:1013F00080618083E0919301F09194018081886005
:101400008083E0919301F0919401808180688083D2
:10141000E0919301F091940180818F7D808362E05F
:10142000809123020E94BB022FB7F89480917D0126
:1014300090917E01A0917F01B09180012FBF805DCE
:101440009740A109B1098093270290932802A093A5
:101450002902B0932A0287E3809330028EE2282E7D
:1014600081E0382EEE24E394F12C60ED77E080E00B
:1014700090E00E9423030E9464040E94550380E0D0
:1014800094E00E94250D9C013C5F009711F430E030
:1014900020E09B838A839D838C833F832E833987BF
:1014A00028871A861F868FE00E94EC026C0161E09B
:1014B0008CE00E946F028EE00E94EC028C019093FF
:1014C0007C0180937B0160E08CE00E946F020E94AF
:1014D00064040E948F0B2B010E945503882309F49A
:1014E000A7C00E94B0000E948F0B4B01AE014E5F5F
:1014F0005F4F60E471E0CE010B960E942D08BC01A5
:1015000090E080E00E94AD04AE014E5F5F4F63E467
:1015100071E0CE010B960E942D08FC01892B41F051
:10152000848180788460848331822082F382E282A5
:10153000AE014E5F5F4F68E471E0CE010B960E94F2
:101540002D08BC0190E080E00E94AD04AE014E5F2A
:101550005F4F6EE471E0CE010B960E942D08BC0136
:1015600090E080E00E94AD04AE014E5F5F4F64E505
:1015700071E0CE010B960E942D08BC01C8010E94AB
:10158000AD04AE014E5F5F4F6FE571E0CE010B968B
:101590000E942D08BC01C2010E94AD04AE014E5F45
:1015A0005F4F68E671E0CE010B960E942D08BC01EA
:1015B000C4010E94AD04AE014E5F5F4F6CE671E066
:1015C000CE010B960E942D08BC01C6010E94AD04FD
:1015D00081E891E0998B888B1B8A1A8ABE01605F33
:1015E0007F4FCE010B960E946C0541E050E063E70F
:1015F00071E081E891E00E94620142E050E062E720
:1016000071E081E891E00E9462018A819B810097EC
:1016100011F00E94C10D80E090E0892B09F425CFE4
:101620000E94CC01882309F420CF0E9400001DCF26
:1016300060E070E080EC9FE756CF5058BB27AA27A8
:101640000E94350B0C943D0C0E942F0C38F00E9428
:10165000360C20F039F49F3F19F426F40C942C0C2E
:101660000EF4E095E7FB0C94260CE92F0E944E0C3B
:1016700058F3BA17620773078407950720F079F4C7
:10168000A6F50C94700C0EF4E0950B2EBA2FA02D3D
:101690000B01B90190010C01CA01A0011124FF271F
:1016A000591B99F0593F50F4503E68F11A16F0401A
:1016B000A22F232F342F4427585FF3CF4695379519
:1016C0002795A795F0405395C9F77EF41F16BA0BDE
:1016D000620B730B840BBAF09150A1F0FF0FBB1F8C
:1016E000661F771F881FC2F70EC0BA0F621F731FD5
:1016F000841F48F4879577956795B795F7959E3F32
:1017000008F0B0CF9395880F08F09927EE0F9795C2
:10171000879508950E94020C08F481E008950E94C4
:10172000960B6894B1110C94710C08950E94560C9C
:1017300088F09F5798F0B92F9927B751B0F0E1F092
:10174000660F771F881F991F1AF0BA95C9F714C042
:10175000B13091F00E94700CB1E008950C94700CBF
:10176000672F782F8827B85F39F0B93FCCF386957B
:1017700077956795B395D9F73EF4909580957095D8
:1017800061957F4F8F4F9F4F0895E89409C097FB55
:101790003EF490958095709561957F4F8F4F9F4F48
:1017A0009923A9F0F92F96E9BB279395F69587958C
:1017B00077956795B795F111F8CFFAF4BB0F11F44F
:1017C00060FF1BC06F5F7F4F8F4F9F4F16C08823F6
:1017D00011F096E911C0772321F09EE8872F762F2C
:1017E00005C0662371F096E8862F70E060E02AF06D
:1017F0009A95660F771F881FDAF7880F9695879559
:1018000097F90895990F0008550FAA0BE0E8FEEF2D
:1018100016161706E807F907C0F012161306E407B4
:10182000F50798F0621B730B840B950B39F40A26AD
:1018300061F0232B242B252B21F408950A2609F48B
:10184000A140A6958FEF811D811D089597F99F678F
:1018500080E870E060E008959FEF80EC0895002438
:101860000A941616170618060906089500240A9405
:1018700012161306140605060895092E0394000C8B
:1018800011F4882352F0BB0F40F4BF2B11F460FF1A
:1018900004C06F5F7F4F8F4F9F4F089557FD905843
:1018A000440F551F59F05F3F71F04795880F97FB24
:1018B000991F61F09F3F79F08795089512161306DE
:1018C0001406551FF2CF4695F1DF08C0161617060D
:1018D0001806991FF1CF8695710561050894089542
:1018E000E894BB2766277727CB0197F908950E94D4
:1018F000020C08F48FEF08950E948F0C0C943D0C9D
:101900000E942F0C38F00E94360C20F0952311F025
:101910000C94260C0C942C0C11240C94710C0E9429
:101920004E0C70F3959FC1F3950F50E0551F629FC9
:10193000F001729FBB27F00DB11D639FAA27F00D28
:10194000B11DAA1F649F6627B00DA11D661F829F4F
:101950002227B00DA11D621F739FB00DA11D621F34
:10196000839FA00D611D221F749F3327A00D611D51
:10197000231F849F600D211D822F762F6A2F112433
:101980009F5750409AF0F1F088234AF0EE0FFF1F66
:10199000BB1F661F771F881F91505040A9F79E3FBD
:1019A000510580F00C94260C0C94710C5F3FE4F30D
:1019B000983ED4F3869577956795B795F795E79513
:1019C0009F5FC1F7FE2B880F911D9695879597F91C
:1019D0000895AA1BBB1B51E107C0AA1FBB1FA61776
:1019E000B70710F0A61BB70B881F991F5A95A9F7C8
:1019F00080959095BC01CD010895A1E21A2EAA1BF5
:101A0000BB1BFD010DC0AA1FBB1FEE1FFF1FA217AE
:101A1000B307E407F50720F0A21BB30BE40BF50BAB
:101A2000661F771F881F991F1A9469F76095709534
:101A3000809590959B01AC01BD01CF010895EE0FFB
:101A4000FF1F0590F491E02D09940F931F93CF93FE
:101A5000DF938230910510F482E090E0E091330250
:101A6000F091340230E020E0B0E0A0E0309799F44B
:101A70002115310509F44AC0281B390B24303105E2
:101A8000D8F58A819B816115710589F1FB019383EA
:101A90008283FE0111C04081518102811381481768
:101AA0005907E0F04817590799F4109761F012961A
:101AB0000C93129713961C933296CF01DF91CF911E
:101AC0001F910F9108950093330210933402F4CFC5
:101AD0002115310551F04217530738F0A901DB01F8
:101AE0009A01BD01DF01F801C1CFEF01F9CF909359
:101AF000340280933302CDCFFE01E20FF31F8193B6
:101B000091932250310939832883D7CF2091310214
:101B100030913202232B41F42091020130910301D4
:101B20003093320220933102209100013091010163
:101B30002115310541F42DB73EB740910401509174
:101B40000501241B350BE0913102F0913202E217BE
:101B5000F307A0F42E1B3F0B2817390778F0AC01D0
:101B60004E5F5F4F2417350748F04E0F5F1F5093AD
:101B7000320240933102819391939FCFF0E0E0E0F5
:101B80009CCFCF93DF930097E9F0FC01329713824B
:101B90001282A0913302B0913402ED0130E020E0D6
:101BA0001097A1F420813181820F931F209131027F
:101BB000309132022817390709F061C0F0933202E0
:101BC000E0933102DF91CF910895EA01CE17DF074C
:101BD000E8F54A815B819E0141155105B1F7E901A4
:101BE000FB83EA8349915991C40FD51FEC17FD0778
:101BF00061F4808191810296840F951FE901998398
:101C00008883828193819B838A83F0E0E0E012964F
:101C10008D919C9113970097B9F52D913C91119757
:101C2000CD010296820F931F209131023091320232
:101C30002817390739F6309751F51092340210926F
:101C40003302B0933202A0933102BCCFD383C2835C
:101C500040815181840F951FC817D90761F44E5FE9
:101C60005F4F88819981480F591F518340838A8132
:101C70009B81938382832115310509F0B0CFF093C6
:101C80003402E09333029ECFFD01DC01C0CF13820A
:101C90001282D7CFFB01DC018D91019080190110D8
:0A1CA000D9F3990B0895F894FFCFD3
:101CAA0000003502800000000000020262018F017C
:101CBA004F02C0019E01B2012F2F22225C5C6208F2
:101CCA00660C6E0A720D7409005C75303030300093
:101CDA006E756C6C00747275650066616C73650074
:101CEA0049440054696D6500436F72645800436F3C
:101CFA007264590057617465724C6576656C004868
:101D0A00756D696469747900446567004C756D691D
:061D1A006E000D0A00003E
:00000001FF
